:020000040000FA
:100000008312031386011B28831203130C1C0F2871
:10001000A00803190E2820308606A0030C100B1C24
:100020001A28A008031D18288E018F010630A00091
:1000300086080B100900831606309F008730810068
:10004000DF30860001308C0083129F019C018E01FD
:100050008F0135309000D8308B008C01A0016300F7
:0A0060006400A008031D30282F28BB
:08400000550055005500550064
:02400E00373F3A
:0C420000AA00BB00CC00DD00EE00FF00B7
:104220000000010002000300040005000600070072
:10423000080009000A000B000C000D000E000F0022
:00000001FF
