:020000040000FA
:100000008312031786011B28831203130C1C0F286D
:10001000A00803190E2820308606A0030C100B1C24
:100020001A28A008031D18288E018F010630A00091
:1000300006080B10090087018801890183168801D1
:1000400089018316031387308100DF30860010306A
:100050009500960001308C0083129F018E018F0164
:1000600035309000C8308B008C01A0016300640023
:08007000A008031D3728362803
:08400000550055005500550064
:02400E00CC30B4
:02401000FFFFB0
:0C420000AA00BB00CC00DD00EE00FF00B7
:104220000000010002000300040005000600070072
:10423000080009000A000B000C000D000E000F0022
:00000001FF
