:020000040000FA
:0A000000070EB46E2FEF00F01100A0
:08001800006ED8CF01F0E0CF2B
:1000200002F09EA01CEF00F00352D8B41BEF00F0CA
:10003000200E811A03069E90F2A029EF00F00352D1
:10004000D8A427EF00F0CE6ACF6A060E036E815067
:10005000F29002C0E0FF005001C0D8FF1000D18034
:100060000F0EC16EC26A816ADF0E936EF16A9F6ADB
:10007000CE6ACF6AD08EC80EF26E050ECD6E010E1E
:100080009D6E816AF2909E6A036A03000400035227
:0A009000D8A446EF00F045EF00F0A1
:020000040020DA
:08000000555555555555555550
:020000040030CA
:0E000000FF080012FF0180FF0FC00FE00F404D
:020000040040BA
:06000000AABBCCDDEEFFFF
:10005000000102030405060708090A0B0C0D0E0F28
:00000001FF
