:020000040000FA
:060000008310031419280F
:08000800831203130C1C0E28E7
:10001000A00803190D288509A0030C100B1C182833
:10002000A008031D17288E018F010630A0000B10B9
:100030000900831603130F308100DF308500103074
:1000400001308C008312850135309000C8308B0060
:100050008C01A00163006400A008031D2B282A283E
:08400000550055005500550064
:02400E00373F3A
:0C420000AA00BB00CC00DD00EE00FF00B7
:104220000000010002000300040005000600070072
:10423000080009000A000B000C000D000E000F0022
:00000001FF
