:020000040000FA
:06000000831403141B2809
:08000800831203130C1C0F28E6
:10001000A00803190E2820308606A0030C100B1C24
:100020001A28A008031D18288E018F010630A00091
:1000300086080B10090003130F308100DF308600A3
:10004000103001308C00831286018E018F01353013
:100050009000D8308B008C01A00163006400A008E0
:06006000031D2E282D28CF
:08400000550055005500550064
:02400E00373F3A
:0C420000AA00BB00CC00DD00EE00FF00B7
:104220000000010002000300040005000600070072
:10423000080009000A000B000C000D000E000F0022
:00000001FF
