:020000040000FA
:060000008312031719280A
:08000800831203130C1C0E28E7
:10001000A00803190D288709A0030C100B1C182831
:10002000A008031D17288E018F010630A0000B10B9
:1000300009009E01831603130F308100DF30870013
:1000400010309500960001308C00831285018701E5
:1000500035309000C8308B008C01A0016300640033
:08006000A008031D2F282E2823
:08400000550055005500550064
:02400E00CC3CA8
:0C420000AA00BB00CC00DD00EE00FF00B7
:104220000000010002000300040005000600070072
:10423000080009000A000B000C000D000E000F0022
:00000001FF
