:020000040000FA
:06000000033088001F28F8
:080008008801111C0D28A0085D
:1000100003190C288C09A0031110073088009308DD
:1000200003191D288801A008031D1A2896019701AD
:100030000630A000073088009301880109008C0178
:10004000013088000F309700FB308C0001309100A8
:100050000430880010308C00073088001030910088
:100060009200930188018C0115309800C8308B00F4
:100070009101A00163006400A008031D3B283A28F9
:08400000550055005500550064
:02400E009C29EB
:02401000FF3E71
:0C420000AA00BB00CC00DD00EE00FF00B7
:104220000000010002000300040005000600070072
:10423000080009000A000B000C000D000E000F0022
:00000001FF
