:020000040000FA
:06000000831603131A2809
:0800080083120C1C0E28A00855
:1000100003190D2802308606A0030C108B1C19282A
:10002000A008031D17288E018F010630A0000608C6
:100030008B1009000F30810007309F00FD308600D3
:10004000013001308C00831286018E018F01353022
:100050009000D8308B008C01A00163006400A008E0
:06006000031D2E282D28CF
:08400000550055005500550064
:02400E00943FDD
:0C420000AA00BB00CC00DD00EE00FF00B7
:104220000000010002000300040005000600070072
:10423000080009000A000B000C000D000E000F0022
:00000001FF
