:020000040000FA
:040000008316182823
:0800080083120C1C0D28A00856
:1000100003190C288509A0030C100B1C1728A00835
:10002000031D16288E018F010630A0000B10090059
:100030000F308100FB3085001030950096000130B4
:100040008C00831207309900850135309000C8304C
:100050008B008C01A00163006400A008031D2C2804
:020060002B284B
:08400000550055005500550064
:02400E008C3FE5
:0C420000AA00BB00CC00DD00EE00FF00B7
:104220000000010002000300040005000600070072
:10423000080009000A000B000C000D000E000F0022
:00000001FF
