:020000040000FA
:100000008316013081000E2883120C1C0D28A008D5
:1000100003190C288609A0030C100900FD30860086
:10002000013001308C0083129F0186013530900031
:10003000C0308B008C01A00163006400A008031D88
:100040001D2806181C28A008031D1D288E018F01DD
:060050000630A0001D288F
:08400000550055005500550064
:02400E00B73FBA
:0C420000AA00BB00CC00DD00EE00FF00B7
:104220000000010002000300040005000600070072
:10423000080009000A000B000C000D000E000F0022
:00000001FF
