:020000040000FA
:040000008316182823
:0800080083120C1C0D28A00856
:1000100003190C288709A0030C100B1C1728A00833
:10002000031D16288E018F010630A0000B10090059
:100030000F308100DF3087001030950096000130CE
:100040008C008312073099008501870135309000BC
:10005000C8308B008C01A00163006400A008031D60
:040060002D282C28F3
:08400000550055005500550064
:02400E008C3FE5
:0C420000AA00BB00CC00DD00EE00FF00B7
:104220000000010002000300040005000600070072
:10423000080009000A000B000C000D000E000F0022
:00000001FF
