:020000040000FA
:06000000830183120029B8
:08000800052883120C1C0F28CF
:100010002008FF3903190F28FD308506A0030C10B6
:100020000B1C1C282008FF39031D1C2800308E00E3
:0C00300000308F000630A0000B1009000B
:1002000085018C01073099003D30900083169501DF
:100210009F010F308100FB308500C8308B00083013
:10022000960001308C008312A00163006400200856
:08023000FF39031D16291529F1
:08400000550055005500550064
:02400E00CC3CA8
:0C420000AA00BB00CC00DD00EE00FF00B7
:104220000000010002000300040005000600070072
:10423000080009000A000B000C000D000E000F0022
:00000001FF
