:020000040000FA
:0400000083161A2821
:0800080083120C1C0E28A00855
:1000100003190D2802308606A0030C108B1C19282A
:10002000A008031D18288E018F010630A0000608C5
:100030008B100900FD3086000F30810001308C00EC
:10004000831286018E018F0135309000D8308B00ED
:100050008C01A00163006400A008031D2B282A283E
:08400000550055005500550064
:02400E00943FDD
:0C420000AA00BB00CC00DD00EE00FF00B7
:104220000000010002000300040005000600070072
:10423000080009000A000B000C000D000E000F0022
:00000001FF
