:020000040000FA
:040000008316182823
:0800080083120C1C0D28A00856
:1000100003190C288509A0030C100B1C1728A00835
:10002000031D16288E018F010630A0000B10090059
:100030000F308100FE308500023001308C008312C9
:10004000850135309000C8308B008C01A001630021
:0A0050006400A008031D28282728DB
:08400000550055005500550064
:02400E00943FDD
:0C420000AA00BB00CC00DD00EE00FF00B7
:104220000000010002000300040005000600070072
:10423000080009000A000B000C000D000E000F0022
:00000001FF
