:020000040000FA
:10000000831603139B011E2883120C1C11288E01DA
:10001000F0308F00A0080319102802308606A003D4
:100020000C108B1C1D28A008031D1B288E01F0300E
:100030008F000630A00006088B1009000F308100E9
:1000400007309C00FD308600013001308C008312A7
:1000500086018E018F0105309000D8308B008C0115
:0E006000A00163006400A008031D32283128AF
:08400000550055005500550064
:02400E00943FDD
:02401000FFFFB0
:0C420000AA00BB00CC00DD00EE00FF00B7
:104220000000010002000300040005000600070072
:10423000080009000A000B000C000D000E000F0022
:00000001FF
